:020000040800F2
:1000000048D90020450100084D0100084F010008B3
:1000100051010008530100085501000800000000CC
:100020000000000000000000000000005701000870
:1000300059010008000000005B0100085D01000894
:100040005F0100085F0100085F010008E15C000833
:100050005F0100085F0100085F0100085F01000800
:100060005F0100085F0100085F0100085F010008F0
:100070005F0100085F0100085F0100085F010008E0
:100080005F0100085F0100085F0100085F010008D0
:100090005F0100085F0100085F0100085F010008C0
:1000A0005F0100085F0100085F0100085F010008B0
:1000B000D99000085F0100085F0100085F01000897
:1000C0005F0100085F0100085F0100085F01000890
:1000D0005F010008159500085F0100085F01000836
:1000E0005F0100085F0100085F0100085F01000870
:1000F0005F0100085F0100085F0100085F01000860
:100100005F0100085D6C00085F0100085F010008E6
:100110005F0100085F0100085F0100085F0100083F
:100120005F0100085F0100085F0100085F0100082F
:10013000DFF80CD000F0ACFC00480047B1C8000864
:1001400048D900200648804706480047FEE7FEE7FA
:10015000FEE7FEE7FEE7FEE7FEE7FEE7FEE7FEE777
:1001600079900008310100082DE9F0410024061BB8
:10017000254671F1000605DA01240027D0EB0700BF
:1001800067EB0101161E73F1000605DA0027D2EBBA
:100190000702012567EB030300F054FB86460E4679
:1001A00017469C46AC4204D00025D0EB050E65EB0B
:1001B000010624B10020D2EB000760EB030C70466F
:1001C00031463A466346BDE8F08140EA01039B07A9
:1001D00003D009E008C9121F08C0042AFAD203E0BC
:1001E00011F8013B00F8013B521EF9D27047D2B220
:1001F00001E000F8012B491EFBD270470022F6E710
:1002000010B513460A4604461946FFF7F0FF20468C
:1002100010BD421E12F8013F002BFBD111F8013B2B
:1002200002F8013B002BF9D17047421C10F8011B6A
:100230000029FBD1801A704710B5002200E0521C43
:10024000835C8C5CA34201D1002BF8D1D8B2E1B21F
:10025000401A10BD034611F8012B00F8012B002AAB
:10026000F9D118467047F0B480EA0102D40F420079
:10027000B2EB410F02D20246084611464A0042D074
:10028000C30DDDB2C1F3C752AD1A202D35DAC1F36B
:10029000160141F4000204B15242C5F1200602FAEF
:1002A00006F12A411044B3EBD05F23D0C4B1012D35
:1002B000A0EBC35009DCF0BC4FF0004202EAC3528D
:1002C000DBB200F5000000F028BB400000F18070B8
:1002D00000EBC350A0F1807040EAD170490009E002
:1002E000490841EAC071A0EBC35000F50000400886
:1002F00000EBC350F0BC00F007BB6142012202EBEF
:100300004101001BF6E7F0BC704781F00041AAE70D
:1003100080F00040A7E780EA010210B502F0004338
:10032000400022D04A001FD0010E01EB1261C0F341
:100330005600C2F3560240F4000042F40002A0FB53
:10034000022000047F39140400D0401C50EA1240FF
:1003500001D44000491EC2B20C0604EBD010401C70
:100360004008802A02D003E0002010BD20F00100E8
:10037000002900DA0020184310BD30B480EA0102E1
:1003800002F0004530F0004221F0004013D090B15F
:10039000C30DD40DC2F31601C0F31600E41A41F4E4
:1003A000000140F400027D34914201D3641C00E05E
:1003B0004900002C02DA30BC002070474FF40000E6
:1003C0000023914201D3891A034340084FEA4101B7
:1003D000F7D151B1914202D14FF0004105E002D274
:1003E0004FF0010101E06FF0010103EBC45028441C
:1003F00030BC00F089BA2DE9FE4F804681EA030047
:10040000C00F0C46009021F0004123F00045B8EBEE
:100410000200A94105D24046214690461C460B46A3
:10042000024623F00040104347D0270DC7F30A00CF
:10043000C3F30A510290401A019040286BDAC3F3CB
:10044000130040F4801B0098924620B10023D2EBA9
:10045000030A63EB0B0B01985946C0F1400250466A
:1004600000F021FA06460D4650465946019A00F022
:1004700039FA10EB08006141002487EA115284EA3E
:10048000E7731A4340D0009A62B3019A012A4FEAF7
:10049000075215DC001B61EB02014FF0004202EA3B
:1004A0000752CDE90042001C41F5801132462B462F
:1004B00000F070FA03B0BDE8F08F40462146F9E73E
:1004C000001B61EB0201001C41F5801300185B4129
:1004D0002018A2F5001747EB030140EAD570B619C2
:1004E0006D4111E06D084FEA360645EAC0754FEAE6
:1004F0000752001B61EB0201001C41F58011490805
:100500004FEA30000019514132462B4603B0BDE896
:10051000F04F00F030BA0098012240000023D0EBE9
:10052000020263EBE073009821464FEAE074B8EBF7
:10053000000061EB0401E9E783F000435BE781F031
:10054000004158E72DE9FE4F81EA030404F000441E
:1005500021F0004100944FF0000B23F0004350EADB
:1005600001045ED052EA03045BD0C3F30A54C1F322
:100570000A552C44A4F2F3340194A0FB0254C1F3B5
:10058000130141F48011C3F3130343F4801301FBFF
:10059000024400FB034E840A970A44EA815447EA66
:1005A0008357A4FB076802958D0A05FB07854FEA70
:1005B000932C04FB0C542705029D4FEA065847EA8A
:1005C0001637B5EB08056EEB070C870E920E47EA5F
:1005D000811742EA8312A7FB0201B6EB0B0164EB21
:1005E00000042B0D43EA0C335E1844EB1C50DA4632
:1005F0005146E7FB0201C5F313044FEA0B3343EA0C
:1006000014534FEA0432019C43EA0603A4F10C049C
:100610000294009CCDE900B400F0BCF903B0BDE841
:10062000F08F00200146F9E72DE9F04D81EA03043F
:1006300004F0004B21F0004514464FF0000A23F06F
:10064000004150EA050220D054EA01021DD0C5F352
:100650000A570246C5F31303C1F31300C1F30A5648
:1006600040F4801543F48013A7EB0608101BD64610
:1006700008F2FD3873EB050002D308F1010801E030
:1006800092185B41B8F1000F03DA00200146BDE883
:10069000F08D00204FF48011064684460EE0171BB3
:1006A00073EB050705D3121B63EB050306434CEA06
:1006B000010C49084FEA300092185B4150EA0107EB
:1006C000EDD152EA030012D082EA040083EA050168
:1006D000084305D0101BAB4106D20122002306E0DF
:1006E00000224FF0004302E06FF0010253101AEBBA
:1006F00006004CEB085110EB0A0041EB0B01BDE882
:10070000F04D00F038B996230022114600F005B9EB
:100710000EB5C10F80EAE0700844CA07002140F21C
:1007200033438DE80E000A460B4600F033F903B060
:1007300000BD0EB540F2334102910021CDE9001118
:100740000A460B4600F026F903B000BD20F0004039
:10075000C10DC0F3160040F400007F2901DA00202B
:100760007047962903DCC1F19601C840704796395D
:1007700088407047C1F30A5210B5C1F3130140F22B
:10078000FF3341F480119A4201DA002010BD40F29B
:1007900033439A42A2F2334203DC524200F092F811
:1007A00010BD904010BD00F0004230F000400AD073
:1007B000C10D01F56071C0F3160042EA0151C20893
:1007C00040071143704700200146704701F0004385
:1007D00030B421F0004150EA010206D00A0DA2F522
:1007E0006072C1F31301002A02DC30BC00207047A4
:1007F000440F44EAC104C100E01830BC00EBC25011
:1008000000F082B8002801DBC0F10040002901DBC4
:10081000C1F100418142704730B50B4601460020CE
:100820002022012409E021FA02F59D4205D303FAB2
:1008300002F5491B04FA02F52844151EA2F1010233
:10084000F1DC30BD2DE9F05F0546002092469B4665
:1008500088460646814640241BE0284641464746D6
:10086000224600F02FF853465A46C01A914110D341
:1008700011461846224600F016F82D1A67EB0108BB
:100880004F4622460120002100F00DF817EB000929
:100890004E41201EA4F10104DFDC484631462A46C1
:1008A0004346BDE8F09F202A04DB203A00FA02F11B
:1008B000002070479140C2F1200320FA03F319434E
:1008C00090407047202A04DB203A21FA02F00021F0
:1008D000704721FA02F3D040C2F120029140084350
:1008E00019467047202A06DBCB17203A41FA02F05E
:1008F00043EAE07306E041FA02F3D040C2F120027D
:1009000091400843194670470029A8BF7047401C12
:10091000490008BF20F00100704710B4B0FA80FC15
:1009200000FA0CF050EA010404BF10BC704749B152
:10093000CCF1200421FA04F411FA0CF118BF0121C2
:1009400021430843A3EB0C01CB1D4FEA00614FEAA2
:10095000102042BF002010BC704700EBC350104471
:100960000029A4BF10BC7047401C490008BF20F0FC
:10097000010010BC704710B5141E73F1000408DAB2
:10098000401C41F1000192185B411A4301D120F053
:10099000010010BD2DE9F04D92469B4611B1B1FA10
:1009A00081F202E0B0FA80F220329046FFF77BFF3E
:1009B00004460F4640EA0A0041EA0B0153465A46F4
:1009C000084313D0114653EA010019D0C8F1400280
:1009D0005046FFF777FF05460E46504659464246B9
:1009E000FFF761FF084305D0012004E020463946A7
:1009F000BDE8F08D0020054346EAE0762C433743FE
:100A00000A986305E40AA0EB08000022FD0A44EA04
:100A100047540A3002D500200146E9E701051019C4
:100A20006941DDE9084500196941BDE8F04DA2E7DB
:100A3000C1F30A52C1F3130140F2FF3341F48011B4
:100A40009A4202DA00200146704740F233439A424C
:100A5000A2F2334202DC5242FFF734BFFFF723BF5A
:100A600030B5041E71F1000404DB4FF00044404235
:100A700064EB0101141E73F1000405DB1C464FF00A
:100A80000043524263EB0403994208BF904230BDD9
:100A9000064C074D06E0E06840F0010394E80700CB
:100AA00098471034AC42F6D3FFF746FB28470108BD
:100AB0004847010808B50121082004F0B9FF4FF4A8
:100AC0008070ADF8000010208DF8030003208DF831
:100AD00002006946034800F00FFD0020024908604B
:100AE00008BD0000000C0140A081214210B501208A
:100AF00004F0BEFF002004F0BBFF10BD10B50520C0
:100B000000F05AFB10BD000010B500200F4908602E
:100B10000F48006820F0F0000D49086008460068A2
:100B200040F030000860FFF7E9FF00200949C1F8F4
:100B3000A401FFF7E3FF012004490860FFF7DEFF8F
:100B400000200549C1F8840110BD000084812142C4
:100B5000041C0140008023420080214208B501218D
:100B6000882004F065FF0220ADF8000010208DF809
:100B7000030003208DF8020069460A4800F0BCFC1F
:100B80000221084800F045FD4FF40070ADF8000068
:100B90006946054800F0B0FC4FF40071024800F0CF
:100BA00038FD08BD000C0140001C014010B50020BC
:100BB0000F4908600F48006820F0F0000D490860F8
:100BC0000846006840F030000860FFF797FF0120FA
:100BD0000949C1F8A401FFF791FF01200449086009
:100BE000FFF78CFF00200549C1F8840110BD00000B
:100BF00084812142041C0140008023420080214264
:100C000070B5054600241648006820F0F00014492D
:100C100008600846006840F0800008601E2000F070
:100C2000CBFA002611E000200E490860FFF766FFAE
:100C300001200D49C1F884016006040E0B480068CC
:100C400008B1601CC4B2701CC6B2082EEBDB15B92B
:100C5000FFF7ACFF01E0FFF757FF204670BD000033
:100C6000041C0140848121420080214224812342CE
:100C700070B504461348006820F0F0001149086080
:100C80000846006840F03000086000200E49086007
:100C9000FFF734FF002511E0E0090C490860600609
:100CA000040E01200A49C1F88401FFF727FF002044
:100CB00005490860FFF722FF681CC5B2082DEBDB71
:100CC00070BD0000041C014084812142A4812342A4
:100CD0000080214210B50F48006820F0F0000D4957
:100CE00008600846006840F03000086001200A49AA
:100CF00008600A49C1F884011E2000F05DFA002056
:100D000005490860FFF7FAFE00200449C1F8840194
:100D100010BD0000041C0140A48123420080214238
:100D200010B50D48006820F0F0000B490860084637
:100D3000006840F0300008600120084908601E206B
:100D400000F03AFA00200649C1F8A401FFF7D6FEE8
:100D500001200449086010BD041C01408481214227
:100D600000802342A481234210B500241548006866
:100D700020F0F000134908600846006840F0800049
:100D8000086001201049086000F016FA01200F49A0
:100D9000C1F8840100F010FAFFF7B0FE09E0601C12
:100DA000C4B2FA2C03DDFFF7BBFF012010BDFFF733
:100DB000A5FE0548803800680028F0D10449086085
:100DC00000BFF3E7041C0140A481234200802142BC
:100DD0008481214270B500254FF4803404E08020E6
:100DE00005F028FF00B103E0201EA4F10104F6D1B4
:100DF00000BF0CB9032070BD40F2FF5005F0D4FED7
:100E00002846F8E770B5044605E01548456B05F03F
:100E1000450000B100E0F8E700BF042005F00AFF3C
:100E200020B1042005F0C0FE032070BD012005F0B4
:100E300001FF20B1012005F0B7FE0120F5E70848C9
:100E40000069A04201D01020EFE740F2FF500449B2
:100E500088630846406908210840C0B2E5E7000001
:100E60000080014070B500264FF4803505E0114840
:100E7000446B04F0450000B103E0281EA5F1010514
:100E8000F5D100BF15B104F0040028B103260420F9
:100E900005F08AFE304670BD012005F0CBFE18B18A
:100EA0000126012005F080FE40F2FF5005F07CFE97
:100EB0003046F0E70080014010B505E00B48446B78
:100EC00004F0450000B100E0F8E700BF042005F0A1
:100ED000B1FE20B1042005F067FE032010BD40F2F2
:100EE000FF5005F061FE0020F8E70000008001409F
:100EF0002DE9F04105460E464FF0000805E01F4879
:100F0000476B07F0450000B100E0F8E700BF0420A0
:100F100005F090FE28B1042005F046FE0320BDE850
:100F2000F081012005F086FE20B1012005F03CFE95
:100F30000120F4E711480069A84201D01020EEE733
:100F400040F2FF5005F030FE0C48446904F4604064
:100F500018B9200C30804046E1E704F4005008B195
:100F60001320DCE704F4804008B11020D7E704F434
:100F7000004008B10F20D2E74046D0E70080014092
:100F800070B500264FF4803505E00F48446B04F03F
:100F9000450000B103E0281EA5F10105F5D100BF11
:100FA00015B104F0040028B10326042005F0FCFD6F
:100FB000304670BD04F0400018B10026402005F016
:100FC000F3FD3046F5E700000080014021B10268E2
:100FD00042F00102026004E002684FF6FE731A401C
:100FE0000260704701684FF6FE72114001600021F7
:100FF000016041608160C1604B49884208D14A4923
:101000000839496841F00F01474A083A51608AE0BF
:1010100045491431884208D143490839496841F0AB
:10102000F001414A083A51607DE03F492831884249
:1010300008D13D490839496841F470613A4A083A93
:10104000516070E038493C31884208D1364908394E
:10105000496841F47041344A083A516063E03249CA
:101060005031884208D130490839496841F470212B
:101070002D4A083A516056E02B496431884208D124
:1010800029490839496841F47001274A083A5160F2
:1010900049E025497831884208D12349083949680F
:1010A00041F07061204A083A51603CE01F49884293
:1010B00006D1011F096841F00F01021F116032E0E3
:1010C0001A491431884208D11849091F096841F0AA
:1010D000F001164A121F116025E014492831884298
:1010E00008D11249091F096841F470610F4A121FA3
:1010F000116018E00D493C31884208D10B49091FA5
:10110000096841F47041094A121F11600BE0074958
:101110005031884207D10549091F096841F47021FF
:10112000024A121F11607047080002400804024082
:1011300010B50022026847F6F0739A430C6A8B6878
:1011400023430C6923434C6923438C692343CC69B3
:1011500023434C6A23438C6A23431A430260CB68BF
:1011600043600B6883604B68C36010BD0146114A41
:1011700012884A434FF0E0235A6100229A611A46CE
:10118000126942F001021A6100BF4FF0E0221069BB
:1011900000F001021AB100F48032002AF5D04FF0BD
:1011A000E022126922F001024FF0E0231A610022CE
:1011B0009A6170471A0000200146114A12784A438A
:1011C0004FF0E0235A6100229A611A46126942F0F8
:1011D00001021A6100BF4FF0E022106900F0010225
:1011E0001AB100F48032002AF5D04FF0E0221269E3
:1011F00022F001024FF0E0231A6100229A61704749
:101200001800002010B56FF0040007F021FF0A4815
:1012100000680A49B0FBF1F00949087008460078F7
:1012200000EB4001C1EBC0104FF6FF7101EAC000B6
:101230000449088010BD0000B400002000127A00AC
:10124000180000201A00002051B18200A2F1C04213
:10125000126842F001038200A2F1C042136009E06B
:101260008200A2F1C0421268034B1A408300A3F12E
:10127000C0431A6070470000FEFF0F00D0E9011262
:101280001143C268114302691143426911438269E3
:101290001143C2691143026A1143426A1143826ACF
:1012A0001143C26A1143026B114302689200A2F11A
:1012B000C0421160816808290BD101688900A1F141
:1012C000C041096841F0400201688900A1F1C041B4
:1012D0000A60416B0968426B526841EA0211426B35
:1012E000926841EA0221426B928941EA0241426BD3
:1012F000128A41EA0251426B127D41EA0261426B5D
:10130000926911430268521C9200A2F1C04211601E
:10131000C16AB1F5804F1BD1816B0968826B52683D
:1013200041EA0211826B926841EA0221826B128AC1
:1013300041EA0251826B127D41EA0261826B92693D
:10134000114302689200A2F1C042C2F8041107E002
:101350006FF0704201688900A1F1C041C1F8042119
:10136000704700002DE9FC4107460D460026002489
:1013700000200090019008205B4908601020486020
:10138000402088600020C8604FF4806008610846F3
:1013900005F086FC1020FFF735FD044614B1204609
:1013A000BDE8FC815148008800044F49086037209F
:1013B0004860402088600020C8604FF48060086169
:1013C000084605F06DFC3720FFF71CFD04460CB104
:1013D0002046E5E74FF0FF304549086008204860A7
:1013E000302088600220C860002008610120486128
:1013F000084605F0F5FB00203B49086033204860B3
:10140000402088600020C8604FF480600861084672
:1014100005F046FC3320FFF7F5FC04460CB12046EE
:10142000BEE70CE04FF4001005F004FC38B105F005
:1014300031FC4DF82600761C022E00D306E02D4824
:10144000406B40F22A6108400028EBD000BF082022
:1014500005F0F0FB20B1082005F0A6FB04209FE773
:10146000022005F0E7FB20B1022005F09DFB0220E1
:1014700096E7202005F0DEFB20B1202005F094FB4C
:1014800006208DE74FF4007005F0D4FB28B14FF42F
:10149000007005F089FB072082E740F2FF5005F05D
:1014A00083FB00980006009901F47F4140EA012087
:1014B000009901F47F0140EA1120009940EA11608F
:1014C000686001980006019901F47F4140EA01201B
:1014D000019901F47F0140EA1120019940EA11606D
:1014E000286020465CE70000C8110020880000202A
:1014F000DC110020008001402DE9F041024600256A
:101500000026002000230024002791F803C00CF0DF
:101510000F0591F803C00CF0100CBCF1000F03D0C4
:1015200091F802C04CEA050591F800C0BCF1000F2B
:1015300031D0146800202BE04FF0010C0CFA00F3BE
:10154000B1F800C00CEA03069E4220D183004FF0A0
:101550000F0C0CFA03F7BC4305FA03FC4CEA040435
:1015600091F803C0BCF1280F06D14FF0010C0CFA22
:1015700000FCC2F814C00AE091F803C0BCF1480FA7
:1015800005D14FF0010C0CFA00FCC2F810C0401C51
:101590000828D1D31460B1F800C0BCF1FF0F34DDCE
:1015A000546800202EE000F1080C4FF0010808FA02
:1015B0000CF3B1F800C00CEA03069E4221D183006F
:1015C0004FF00F0C0CFA03F7BC4305FA03FC4CEA8E
:1015D000040491F803C0BCF1280F05D100F1080CF8
:1015E00008FA0CF8C2F8148091F803C0BCF1480F57
:1015F00007D100F1080C4FF0010808FA0CF8C2F806
:101600001080401C0828CED35460BDE8F0814161B1
:1016100070470161704700000EB50121802004F081
:1016200007FA4FF40060ADF8000010208DF80300B9
:1016300003208DF8020069463A48FFF75DFF02215A
:101640003848FFF7E6FF4FF48060ADF8000048200F
:101650008DF8030069463348FFF74EFF4FF4806171
:101660003048FFF7D6FFFFF779FA00202E490860CF
:101670000A20FFF77BFD01202C49C1F8AC010A20AC
:10168000FFF774FD4FF48060ADF8000028208DF85E
:10169000030069462348FFF72FFF4FF4806121487C
:1016A000FFF7B5FF6420FFF761FD042201A948F2AE
:1016B000401000F051F800208DF8080001A91CA08E
:1016C00008F044FA1DA101A8FEF7B6FD40BB0220B8
:1016D0008DF80400012201A948F2400000F08EF9C3
:1016E000012201A948F2470000F036F89DF80400F5
:1016F000602807DA9DF8041012A008F027FA0120EC
:1017000000F04EF90A20FFF731FD00208DF80400AB
:10171000012201A948F2400000F070F900200EBD3E
:101720000120FCE7001C0140AC81234200802342E1
:101730004354502049443A25730D0A003931343757
:101740000000000044656661756C74205665723A4D
:1017500025640D0A000000002DE9F04105460F4602
:101760001646FFF7B7FA2820FFF782FAFFF7FCFAD0
:101770002812FFF77DFAFFF7F7FAE8B2FFF778FAD9
:10178000FFF7F2FAFFF7A6FA2920FFF771FAFFF741
:10179000EBFA00240BE0711EA14201D0012100E010
:1017A00000210846FFF72CFA3855601CC4B2B44239
:1017B000F1DBFFF7B5FABDE8F081000071B583B049
:1017C0000024002672480078401C714908700846C1
:1017D00000780A2190FBF1F201FB120018B16C486D
:1017E00000780A287EDA012203A948F24E10FFF79A
:1017F000B3FF9DF80C0000F0800068B19DF80C006C
:1018000000F00F00062807DA00200190012201A94C
:1018100048F24E1000F0F2F89DF80C0000F00F00B6
:1018200000285FD09DF80C0000F00F000628D9DAE0
:101830009DF80C0000F00F01FF208840C0B201901D
:101840005448057D9DF80400C043C0B240F0C0007C
:101850005049087508460088088108464189418238
:1018600000243EE04B48007D0121A140084008B320
:10187000494931F81400042202A9FFF76DFF4548D9
:10188000407D00F00100B0B19DF808009DF80910FE
:1018900000EB012081B23F480A3020F814109DF877
:1018A0000A009DF80B1000EB0120C0F54870394983
:1018B00021F8140013E09DF808009DF8091000EBD2
:1018C0000120344921F814009DF80A009DF80B10FE
:1018D00000EB012081B22F480A3020F81410601C60
:1018E000C4B200E02EE0052CBCDB012629480088AC
:1018F0002A490988884205DC2648408927494988C1
:1019000088421CDD9DF80C0000F00F0001280ADD64
:10191000204840881F490880084680894881002067
:101920001B4908700EE01B4800891A4908800846C8
:10193000408A4881802003900846057502E0002017
:10194000134908709DF80C0000F08F00802815D115
:101950001048007D00F0800030B10E48007D20F07E
:1019600080000C49087509E04FF6FF7009490880AE
:1019700048810846007D00F0E000087504480078C2
:10198000F02802DD0A2002490870304604B070BD1C
:101990009400002070140020A2390108A00100204A
:1019A00038B50546002400208DF800008DF8015060
:1019B00000BF09E09DF800000F49095D0844C0B26E
:1019C0008DF80000601CC4B2B82CF3D39DF8000061
:1019D000C043401CC0B28DF80000B822064948F24E
:1019E000470000F00BF80222694648F2FF0000F0C1
:1019F00005F8002038BD0000EA3801082DE9F04163
:101A000004460E4617464FF00008FFF763F92820FA
:101A1000FFF72EF9FFF7A8F92012FFF729F9FFF7D2
:101A2000A3F9E0B2FFF724F9FFF79EF900250BE0D8
:101A3000705DFFF71DF9FFF797F98046B8F1000FC9
:101A400000D003E0681CC5B2BD42F1DB00BFFFF768
:101A500067F94046BDE8F0812DE9F05F824689468E
:101A600014462046E21704EB5272D2102146E317C7
:101A700004EB5373DB10A4EBC3030BB1012300E0B1
:101A800000231A4402FB04F59AF800800AF10100D1
:101A900082460678B8F1810F06DB402E04DBFF2E6C
:101AA00002D0B8F1FF0F0DD14FF0000B06E000207F
:101AB00009F8010B0BF1010000F0FF0BAB45F6D369
:101AC000BDE8F09F7F2E03DAA6F14000C6B202E027
:101AD000A6F14100C6B2A8F1810000F0FF08BE20C7
:101AE00000FB086000FB05F7182C1CD004DC0C2C54
:101AF00007D0102C32D10DE0202C1DD0302C2DD150
:101B000023E0AAB21748D0F80900C119484607F0E7
:101B1000F7FE23E0AAB21348D0F81100C1194846D5
:101B200007F0EEFE1AE0AAB20E48D0F81900C1196B
:101B3000484607F0E5FE11E0AAB20A48D0F82100B5
:101B4000C119484607F0DCFE08E0AAB20548D0F803
:101B50002900C119484607F0D3FE00BF00BF00BFEF
:101B6000AEE700008614002072B6704762B6704778
:101B70001CB5044600200190009021480088000414
:101B8000204908600D204860402088600020C8601F
:101B90004FF480600861084605F082F81A48406BEF
:101BA000009002E01848406B0090009800F045005B
:101BB0000028F7D0012005F03DF820B1012004F005
:101BC000F3FF01201CBD042005F034F820B10420EF
:101BD00004F0EAFF0320F5E70B4800690D2801D067
:101BE0001020EFE740F2FF5004F0DEFF06484069A6
:101BF00001900198C0F3432020700020E2E700002C
:101C000088000020C81100200080014070B5044603
:101C1000002617480588408845431548808846F6C1
:101C20000401884216D112488079012812D100207F
:101C30000F4988712A2048812B208881002108467D
:101C400001F030FD01200A4988712B2048812A20AB
:101C5000888103E00021084601F024FD01F02AFFFD
:101C6000002602E003480480761CAE42FAD370BD21
:101C7000A00100200008006C10B50446002C66D1BD
:101C80006C498871F02008804FF4A07048800846A5
:101C9000808849F2413188420BD06648808846F6F8
:101CA0000401884205D06348808845F2103188429B
:101CB0001AD12C205F4908812A2048812B20888155
:101CC0000846808846F60401884205D05948808835
:101CD00045F21031884206D14FF4A0705549088072
:101CE0004FF4F0704880A1E05248808845F21051CE
:101CF000884210D14FF430504E4908814FF428509B
:101D000048814FF42C5088814FF4F07008804FF4D4
:101D1000487048808AE04748808841F663118842CD
:101D20000DD12C20434908812B2048812A2088810D
:101D30004FF4F07008804FF44870488076E022201D
:101D40003C49088120204881212088816EE00120C3
:101D5000384988714FF4A0700880F0204880084608
:101D6000808849F24131884205D03248808845F266
:101D70001031884207D12C202E4908812A20488121
:101D80002B2088813FE02B48808846F6040188425A
:101D900007D12C20274908812B2048812A208881BF
:101DA00031E02448808845F21051884210D14FF428
:101DB0003050204908814FF4285048814FF42C506E
:101DC00088814FF4487008804FF4F07048801AE022
:101DD0001848808841F6631188420DD12C2015499E
:101DE00008812A2048812B2088814FF44870088080
:101DF0004FF4F070488006E022200E49088121202F
:101E00004881202088810B48808846F6040188425A
:101E100005D00848808845F21031884206D14FF439
:101E2000F070044908804FF4A0704880002001F051
:101E3000C3FA10BDA00100202DE9FF4F84B08146F8
:101E40008A460020039002900698A0EB09050798A7
:101E5000A0EB0A06CDF80490CDF800A0002D01DD1E
:101E6000012705E00DB9002702E04FF0FF376D4272
:101E7000002E02DD4FF0010806E016B94FF0000811
:101E800002E04FF0FF387642B54201DD2C4600E01B
:101E900034464FF0000B21E0009A91B2019A90B2C3
:101EA00000F022F8039828440390029830440290EE
:101EB0000398A04205DD0398001B03900198384465
:101EC00001900298A04205DD0298001B0290009844
:101ED000404400900BF101001FFA80FB601C834519
:101EE000DADD08B0BDE8F08F30B504460D4629466E
:101EF000204601F0D7FB01F0DDFD024800880249D1
:101F0000088030BD7C0000200008006CF0B504465D
:101F10000D4616461F462B46324629462046FFF7F9
:101F20008BFF3B46224629462046FFF785FF3B466E
:101F3000324639462046FFF77FFF3B463246294668
:101F40003046FFF779FFF0BD30B503460C46154625
:101F50005A48808849F24131884205D057488088E4
:101F600045F21031884214D15449488901F09CFD52
:101F7000181201F093FDD8B201F090FD4F49888905
:101F800001F092FD201201F089FDE0B201F086FD22
:101F90008CE04A48808845F21051884220D1474958
:101FA000488901F081FD181201F078FD4349498903
:101FB000491C88B201F078FDD8B201F06FFD3F49AD
:101FC000888901F071FD201201F068FD3B49898983
:101FD000491C88B201F068FDE0B201F05FFD65E0E8
:101FE0003648808841F66311884228D13348807989
:101FF00020B932480088401EC01A83B22F49488950
:1020000001F052FD181201F049FDD8B201F046FD71
:10201000181201F043FDD8B201F040FD274988892C
:1020200001F042FD201201F039FDE0B201F036FD71
:10203000201201F033FDE0B201F030FD36E01F4820
:10204000808846F6040188421DD11C488079012809
:1020500004D11A480088401EC01A83B21749488923
:1020600001F022FD181201F019FDD8B201F016FDA1
:102070001249888901F018FD201201F00FFDE0B22D
:1020800001F00CFD12E00D488079012804D10B48C5
:102090000088401EC01A83B208494889194601F0D9
:1020A00013FD06498889214601F00EFD0348008989
:1020B00003490880881C058030BD0000A001002075
:1020C000FE07006C2DE9FC4F05460E461746984664
:1020D000DDF82C90002001902748808846F6040106
:1020E000884229D124488079012825D1AB4635463C
:1020F00021480088C01B401E86B247461E48008803
:10210000A0EB0B00401E1FFA80F800201A498871CE
:102110002A2048812B20888143463A46314628466A
:10212000CDF80090FFF7CEFF0120134988712B20D6
:1021300048812A2088811CE0781B401C80B20190D5
:10214000344614E02146284601F0ACFA01F0B2FC16
:102150004FF0000A06E00948A0F800900AF10100DB
:102160001FFA80FA01988245F5DB601C84B2444571
:10217000E8DDBDE8FC8F0000A00100200008006C35
:1021800000B59FB00121080203F022FC01214FF4A9
:10219000B47003F04DFC0120ADF8780010208DF8EC
:1021A0007B0003208DF87A001EA9FE48FFF7A4F9F2
:1021B0004CF23370ADF8780018208DF87B000320C6
:1021C0008DF87A001EA9F848FFF796F94FF680704F
:1021D000ADF8780018208DF87B0003208DF87A0088
:1021E0001EA9F248FFF788F941F20100ADF8780026
:1021F00018208DF87B0003208DF87A001EA9EC488A
:10220000FFF77AF901200890002009900F200A902A
:1022100000200B900C900D900E90019002900320E6
:1022200003900020049005900690079006200F90E0
:102230000020109011901020129000201390159003
:102240001490169017904FF4805018900020199019
:102250004FF480401A9000201B9008A81C9001A801
:102260001D900FA8FFF70AF801210620FEF7ECFFEA
:102270003220FEF77BFF002001F092F8CD498880E4
:1022800008468088FF280ADB084680884FF6FF71E1
:10229000884204D0C7488088B0F5134F7ED1D32040
:1022A00001F002FC01F072F8C249888001F06EF87A
:1022B000C049888001F06AF8BE4988800846808855
:1022C0004FF6FF7101EA0020BA49888001F05EF8FC
:1022D000B84989880843B74988800846808849F208
:1022E000413188425AD0BF2001F0DEFB01F04EF8A8
:1022F000B049888001F04AF8AE49888001F046F87C
:10230000AC49888001F042F8AA4988800846808854
:102310004FF6FF7101EA0020A649888001F036F8E7
:10232000A44989880843A34988800846808846F6DE
:10233000040188427AD0D42001F0B6FB01F026F8DF
:102340009C49888001F022F89A49888001F01EF8A3
:1023500098498880084680884FF6FF7101EA00207E
:102360009449888001F012F892498988084391497C
:1023700088800846808845F21031884256D04FF454
:102380005A4001F091FB01F001F88A4988804FF42E
:102390005B4001F089FB00F0F9FF00E046E0854971
:1023A0008880084680884FF6FF7101EA0020814945
:1023B00088804FF45C4001F077FB00F0E7FF7D4937
:1023C000898808437B49888008468088B0F5004F9B
:1023D00002D145F2105088807648808845F210512D
:1023E000884223D0A12001F05FFB00F0CFFF7149AC
:1023F000888000F0CBFF6F498880084680884FF6C0
:10240000FF7101EA00206B49888000F0BFFF694935
:1024100089880843674988800846808845F2617149
:10242000884203D141F663106249888061488188FF
:1024300061A007F08BFB55214FF4704001F044FB85
:10244000AA214FF2010001F03FFB52214FF202009E
:1024500001F03AFB08214FF2030001F035FB0121A6
:102460004FF2040001F030FB0D214FF4304001F039
:102470002BFB0D214BF2010001F026FB0D214BF24D
:10248000020001F021FB34214FF4364001F01CFB27
:1024900034214BF2016001F017FB34214BF2026052
:1024A00001F012FB0D214FF4314001F00DFB0D2125
:1024B0004BF2011001F008FB0D214BF2021001F06C
:1024C00003FB34214FF4374001F0FEFA34214BF284
:1024D000017001F0F9FA34214BF2027001F0F4FAC4
:1024E00000214FF4324001F0EFFA00214BF20120BD
:1024F00001F0EAFA00214BF2022001F0E5FA242172
:102500004FF4384001F0E0FA24214BF6010001F0CD
:10251000DBFA24214BF6020001F0D6FA01214FF438
:102520003F4001F0D1FA0F214FF4334001F0CCFAD3
:102530000F214BF2013001F0C7FA0F214BF20230AC
:1025400001F0C2FA34214FF4394001F0BDFA3421D0
:102550004BF6011001F0B8FA34214BF6021001F0ED
:10256000B3FA08214FF4354001F0AEFA08214BF2DE
:10257000015001F0A9FA08214BF2025001F0A4FA2F
:1025800003214FF4424001F09FFA24214FF43A40D6
:1025900001F09AFA24214BF6012001F095FA24214A
:1025A00012E00000000C014000140140001801403E
:1025B00000200140A0010020204C43442049443A1F
:1025C00025780D0A000000004BF6022001F07CFA8D
:1025D00000214FF43C4001F077FA78214BF601409E
:1025E00001F072FA00214BF6024001F06DFA002171
:1025F0004FF43D4001F068FA78214BF6015001F0AC
:1026000063FA00214BF6025001F05EFA00214FF40C
:102610003E4001F059FA64214BF6016001F054FA92
:1026200000214FF4514001F04FFA33214DF20110D7
:1026300001F04AFA00214DF2021001F045FA34216E
:102640004DF2031001F040FA00214DF2041001F0A8
:102650003BFA3A214DF2051001F036FA00214DF215
:10266000061001F031FA4A214DF2071001F02CFA60
:1026700000214DF2081001F027FA5C214DF20910FB
:1026800001F022FA00214DF20A1001F01DFA812119
:102690004DF20B1001F018FA00214DF20C1001F070
:1026A00013FAA6214DF20D1001F00EFA00214DF2A1
:1026B0000E1001F009FAE5214DF20F1001F004FAB5
:1026C00001214DF2101001F0FFF913214DF211100C
:1026D00001F0FAF901214DF2121001F0F5F954213F
:1026E0004DF2131001F0F0F901214DF2141001F038
:1026F000EBF982214DF2151001F0E6F901214DF2BE
:10270000161001F0E1F9CA214DF2171001F0DCF9C1
:1027100002214DF2181001F0D7F900214DF21910E5
:1027200001F0D2F902214DF21A1001F0CDF9012188
:102730004DF21B1001F0C8F902214DF21C1001F0FE
:10274000C3F934214DF21D1001F0BEF902214DF202
:102750001E1001F0B9F967214DF21F1001F0B4F914
:1027600002214DF2201001F0AFF984214DF2211029
:1027700001F0AAF902214DF2221001F0A5F9A421DD
:102780004DF2231001F0A0F902214DF2241001F0C6
:102790009BF9B7214DF2251001F096F902214DF277
:1027A000261001F091F9CF214DF2271001F08CF99C
:1027B00002214DF2281001F087F9DE214DF2291097
:1027C00001F082F902214DF22A1001F07DF9F22187
:1027D0004DF22B1001F078F902214DF22C1001F08E
:1027E00073F9FE214DF22D1001F06EF903214DF227
:1027F0002E1001F069F910214DF22F1001F064F94B
:1028000003214DF2301001F05FF933214DF2311008
:1028100001F05AF903214DF2321001F055F96D2102
:102820004DF2331001F050F900214FF4524001F005
:102830004BF933214DF2012001F046F900214DF210
:10284000022001F041F934214DF2032001F03CF95E
:1028500000214DF2042001F037F93A214DF2052014
:1028600001F032F900214DF2062001F02DF94A2144
:102870004DF2072001F028F900214DF2082001F067
:1028800023F95C214DF2092001F01EF900214DF2DF
:102890000A2001F019F981214DF20B2001F014F901
:1028A00000214DF20C2001F00FF9A6214DF20D2070
:1028B00001F00AF900214DF20E2001F005F9E521A1
:1028C0004DF20F2001F000F901214DF2102001F02E
:1028D000FBF813214DF2112001F0F6F801214DF221
:1028E000122001F0F1F854214DF2132001F0ECF820
:1028F00001214DF2142001F0E7F882214DF215205C
:1029000001F0E2F801214DF2162001F0DDF8CA21B4
:102910004DF2172001F0D8F802214DF2182001F0F5
:10292000D3F800214DF2192001F0CEF802214DF22A
:102930001A2001F0C9F801214DF21B2001F0C4F862
:1029400002214DF21C2001F0BFF834214DF21D2070
:1029500001F0BAF802214DF21E2001F0B5F867210E
:102960004DF21F2001F0B0F802214DF2202001F0BD
:10297000ABF884214DF2212001F0A6F802214DF29E
:10298000222001F0A1F8A4214DF2232001F09CF8AF
:1029900002214DF2242001F097F8B7214DF22520B5
:1029A00001F092F802214DF2262001F08DF8CF219E
:1029B0004DF2272001F088F802214DF2282001F085
:1029C00083F8DE214DF2292001F07EF802214DF23C
:1029D0002A2001F079F8F2214DF22B2001F074F851
:1029E00002214DF22C2001F06FF8FE214DF22D2036
:1029F00001F06AF803214DF22E2001F065F8102154
:102A00004DF22F2001F060F803214DF2302001F04B
:102A10005BF833214DF2312001F056F803214DF2DD
:102A2000322001F051F86D214DF2332001F04CF8C5
:102A300000214FF4534001F047F833214DF20130AB
:102A400001F042F800214DF2023001F03DF834214E
:102A50004DF2033001F038F800214DF2043001F05E
:102A600033F83A214DF2053001F02EF800214DF2F5
:102A7000063001F029F84A214DF2073001F024F820
:102A800000214DF2083001F01FF85C214DF20930B1
:102A900001F01AF800214DF20A3001F015F88121F9
:102AA0004DF20B3001F010F800214DF20C3001F026
:102AB0000BF8A6214DF20D3001F006F800214DF281
:102AC0000E3001F001F8E5214DF20F3000F0FCFF6F
:102AD00001214DF2103000F0F7FF13214DF21130BB
:102AE00000F0F2FF01214DF2123000F0EDFF542111
:102AF0004DF2133000F0E8FF01214DF2143000F0E8
:102B0000E3FF82214DF2153000F0DEFF01214DF28E
:102B1000163000F0D9FFCA214DF2173000F0D4FF73
:102B200002214DF2183000F0CFFF00214DF2193094
:102B300000F0CAFF02214DF21A3000F0C5FF01215A
:102B40004DF21B3000F0C0FF02214DF21C3000F0AE
:102B5000BBFF34214DF21D3000F0B6FF02214DF2D3
:102B60001E3000F0B1FF67214DF21F3000F0ACFFC6
:102B700002214DF2203000F0A7FF84214DF22130D8
:102B800000F0A2FF02214DF2223000F09DFFA421AF
:102B90004DF2233000F098FF02214DF2243000F076
:102BA00093FFB7214DF2253000F08EFF02214DF248
:102BB000263000F089FFCF214DF2273000F084FF4E
:102BC00002214DF2283000F07FFFDE214DF2293046
:102BD00000F07AFF02214DF22A3000F075FFF22159
:102BE0004DF22B3000F070FF02214DF22C3000F03E
:102BF0006BFFFE214DF22D3000F066FF03214DF2F8
:102C00002E3000F061FF10214DF22F3000F05CFFFC
:102C100003214DF2303000F057FF33214DF23130B7
:102C200000F052FF03214DF2323000F04DFF6D21D4
:102C30004DF2333000F048FF00214FF4544000F0D3
:102C400043FF33214DF2014000F03EFF00214DF2E1
:102C5000024000F039FF34214DF2034000F034FF10
:102C600000214DF2044000F02FFF3A214DF20540C3
:102C700000F02AFF00214DF2064000F025FF4A2116
:102C80004DF2074000F020FF00214DF2084000F017
:102C90001BFF5C214DF2094000F016FF00214DF2B0
:102CA0000A4000F011FF81214DF20B4000F00CFFB3
:102CB00000214DF20C4000F007FFA6214DF20D401F
:102CC00000F002FF00214DF20E4000F0FDFEE52174
:102CD0004DF20F4000F0F8FE01214DF2104000F0DF
:102CE000F3FE13214DF2114000F0EEFE01214DF2F2
:102CF000124000F0E9FE54214DF2134000F0E4FED2
:102D000001214DF2144000F0DFFE82214DF215400A
:102D100000F0DAFE01214DF2164000F0D5FECA2186
:102D20004DF2174000F0D0FE02214DF2184000F0A5
:102D3000CBFE00214DF2194000F0C6FE02214DF2FB
:102D40001A4000F0C1FE01214DF21B4000F0BCFE14
:102D500002214DF21C4000F0B7FE34214DF21D401F
:102D600000F0B2FE02214DF21E4000F0ADFE6721E0
:102D70004DF21F4000F0A8FE02214DF2204000F06D
:102D8000A3FE84214DF2214000F09EFE02214DF26F
:102D9000224000F099FEA4214DF2234000F094FE61
:102DA00002214DF2244000F08FFEB7214DF2254064
:102DB00000F08AFE02214DF2264000F085FECF2170
:102DC0004DF2274000F080FE02214DF2284000F035
:102DD0007BFEDE214DF2294000F076FE02214DF20D
:102DE0002A4000F071FEF2214DF22B4000F06CFE03
:102DF00002214DF22C4000F067FEFE214DF22D40E5
:102E000000F062FE03214DF22E4000F05DFE102125
:102E10004DF22F4000F058FE03214DF2304000F0FB
:102E200053FE33214DF2314000F04EFE03214DF2AE
:102E3000324000F049FE6D214DF2334000F044FE77
:102E400000214FF4554000F03FFE33214DF2015078
:102E500000F03AFE00214DF2025000F035FE342120
:102E60004DF2035000F030FE00214DF2045000F00E
:102E70002BFE3A214DF2055000F026FE00214DF2C6
:102E8000065000F021FE4A214DF2075000F01CFED2
:102E900000214DF2085000F017FE5C214DF2095060
:102EA00000F012FE00214DF20A5000F00DFE8121CB
:102EB0004DF20B5000F008FE00214DF20C5000F0D6
:102EC00003FEA6214DF20D5000F0FEFD00214DF253
:102ED0000E5000F0F9FDE5214DF20F5000F0F4FD29
:102EE00001214DF2105000F0EFFD13214DF2115071
:102EF00000F0EAFD01214DF2125000F0E5FD5421F1
:102F00004DF2135000F0E0FD01214DF2145000F09D
:102F1000DBFD82214DF2155000F0D6FD01214DF26E
:102F2000165000F0D1FDCA214DF2175000F0CCFD33
:102F300002214DF2185000F0C7FD00214DF219504A
:102F400000F0C2FD02214DF21A5000F0BDFD01213A
:102F50004DF21B5000F0B8FD02214DF21C5000F064
:102F6000B3FD34214DF21D5000F0AEFD02214DF2B3
:102F70001E5000F0A9FD67214DF21F5000F0A4FD86
:102F800002214DF2205000F09FFD84214DF221508E
:102F900000F09AFD02214DF2225000F095FDA4218F
:102FA0004DF2235000F090FD02214DF2245000F02C
:102FB0008BFDB7214DF2255000F086FD02214DF228
:102FC000265000F081FDCF214DF2275000F07CFD0E
:102FD00002214DF2285000F077FDDE214DF22950FC
:102FE00000F072FD02214DF22A5000F06DFDF22139
:102FF0004DF22B5000F068FD02214DF22C5000F0F4
:1030000063FDFE214DF22D5000F05EFD03214DF2D7
:103010002E5000F059FD10214DF22F5000F054FDBC
:1030200003214DF2305000F04FFD33214DF231506D
:1030300000F04AFD03214DF2325000F045FD6D21B4
:103040004DF2335000F040FD00214FF4564000F0A7
:103050003BFD33214DF2016000F036FD00214DF2C1
:10306000026000F031FD34214DF2036000F02CFDD0
:1030700000214DF2046000F027FD3A214DF2056079
:1030800000F022FD00214DF2066000F01DFD4A21F6
:103090004DF2076000F018FD00214DF2086000F0CD
:1030A00013FD5C214DF2096000F00EFD00214DF290
:1030B0000A6000F009FD81214DF20B6000F004FD73
:1030C00000214DF20C6000F0FFFCA6214DF20D60D6
:1030D00000F0FAFC00214DF20E6000F0F5FCE52155
:1030E0004DF20F6000F0F0FC01214DF2106000F095
:1030F000EBFC13214DF2116000F0E6FC01214DF2D2
:10310000126000F0E1FC54214DF2136000F0DCFC91
:1031100001214DF2146000F0D7FC82214DF21560C0
:1031200000F0D2FC01214DF2166000F0CDFCCA2166
:103130004DF2176000F0C8FC02214DF2186000F05B
:10314000C3FC00214DF2196000F0BEFC02214DF2DB
:103150001A6000F0B9FC01214DF21B6000F0B4FCD4
:1031600002214DF21C6000F0AFFC34214DF21D60D5
:1031700000F0AAFC02214DF21E6000F0A5FC6721C0
:103180004DF21F6000F0A0FC02214DF2206000F023
:103190009BFC84214DF2216000F096FC02214DF24F
:1031A000226000F091FCA4214DF2236000F08CFC21
:1031B00002214DF2246000F087FCB7214DF225601A
:1031C00000F082FC02214DF2266000F07DFCCF2150
:1031D0004DF2276000F078FC02214DF2286000F0EB
:1031E00073FCDE214DF2296000F06EFC02214DF2ED
:1031F0002A6000F069FCF2214DF22B6000F064FCC3
:1032000002214DF22C6000F05FFCFE214DF22D609A
:1032100000F05AFC03214DF22E6000F055FC102105
:103220004DF22F6000F050FC03214DF2306000F0B1
:103230004BFC33214DF2316000F046FC03214DF28E
:10324000326000F041FC6D214DF2336000F03CFC37
:1032500055214FF4704000F037FCAA214FF20100D5
:1032600000F032FC52214FF2020000F02DFC082148
:103270004FF2030000F028FC00214FF2040000F0A0
:1032800023FCCC214FF4314000F01EFC00214BF216
:10329000011000F019FC05214FF4364000F014FC39
:1032A00070214FF4374000F00FFC70214BF2017099
:1032B00000F00AFC01214FF4384000F005FC032126
:1032C0004BF6010000F000FC03214BF6020000F079
:1032D000FBFB03214BF6030000F0F6FB02214FF449
:1032E0003C4000F0F1FB00214BF6014000F0ECFB0C
:1032F00000214BF6024000F0E7FBD0214FF449409B
:1033000000F0E2FB02214CF6011000F0DDFB502141
:103310004CF6021000F0D8FB50214CF6031000F0E0
:10332000D3FB50214CF6041000F0CEFB00214FF4EB
:10333000545000F0C9FB55214FF4685000F0C4FB15
:103340004FF4885000F0B0FB7820FDF735FF4FF4C4
:10335000245000F0A9FB0020FEF78EFC0120044958
:1033600008604FF6FF70FEF751FC1FB000BD000073
:103370008081214210B50246012000E050430B1E1F
:10338000A1F10104E1B2F9D110BD000008B5034874
:1033900000880090BDF8000008BD00000008006C27
:1033A00010B50446204600F07FFB0520FDF704FF22
:1033B000FFF7ECFF10BD000070B5044600230026A7
:1033C000B748807901280BD1B548808846F60401BA
:1033D000884205D0B248808841F66311884208D1FE
:1033E000AF488079F0B9AE48808841F663118842D1
:1033F00018D1082C15D2DFE804F00406080A0C0ED8
:10340000101206240DE007240BE0042409E0052433
:1034100007E0012405E0002403E0032401E0022486
:1034200000BF00BF9E48808849F24131884217D0D2
:103430009B48808846F60401884211D098488088CD
:1034400045F2103188420BD09548808845F21051E2
:10345000884205D09248808841F6631188427DD128
:10346000082C1CD2DFE804F00406090C0F12151812
:1034700000BF14E043F0800311E043F040030EE08E
:1034800043F0C0030BE043F0200308E043F0600387
:1034900005E043F0A00302E043F0E00300BF00BFFB
:1034A0007F48808845F21051884202D14FF4585627
:1034B00000E036267A48808845F2103188420DD0E7
:1034C0007748808845F21051884207D07448808838
:1034D00041F66311884201D043F0080370488088A8
:1034E00046F60401884201D143F0020319463046F2
:1034F00000F0EAFA6A48808841F6631188421DD0DC
:1035000003F0200068B16648008865494988884210
:1035100014DA634805884088614908800846458078
:103520000CE05F4800885E494988884206DD5C48B7
:10353000058840885A490880084645805848808850
:1035400045F21051884254D15549488900F0ACFAEF
:10355000002000F0A3FA5249498900E078E0491CB4
:1035600088B200F0A1FA002000F098FA4C4949898D
:10357000891C88B200F098FA49490988491EC1F3AC
:103580000F2000F08BFA46494989C91C88B200F027
:103590008BFA43490978491EC8B200F07FFA4049C6
:1035A000888900F081FA002000F078FA3C49898986
:1035B000491C88B200F078FA002000F06FFA384910
:1035C0008989891C88B200F06FFA35494988491EFB
:1035D000C1F30F2000F062FA31498989C91C88B211
:1035E00000F062FA2E498978491EC8B200F056FAF6
:1035F00055E02B49488900F057FA002000F04EFAB8
:10360000002000F04BFA26490988491EC1F30F201B
:1036100000F044FA22490978491EC8B200F03EFA87
:103620001F49888900F040FA002000F037FA002096
:1036300000F034FA1A494988491EC1F30F2000F0FE
:103640002DFA17498978491EC8B200F027FA26E0FA
:10365000082C1CD2DFE804F004070A0D0F1215181D
:1036600043F0300313E043F0100310E043F0200375
:103670000DE000BF0BE043F0380308E043F02803FF
:1036800005E043F0180302E043F0080300BF00BF69
:10369000032643F480531946304600F015FA70BDF6
:1036A000A001002010B503460C466748808849F207
:1036B0004131884205D06448808845F21031884203
:1036C00014D16149488900F0EFF9181200F0E6F9C9
:1036D000D8B200F0E3F95C49888900F0E5F92012DE
:1036E00000F0DCF9E0B200F0D9F9ABE05648808890
:1036F00046F6040188421DD153488079012804D13F
:1037000051480088401EC01A83B24F49488900F0D2
:10371000CBF9181200F0C2F9D8B200F0BFF94A494B
:10372000888900F0C1F9201200F0B8F9E0B200F089
:10373000B5F987E04448808841F66311884247D153
:1037400041488079A8B940480088401EC01A83B219
:103750003D49488900F0A8F9002000F09FF90020B9
:1037600000F09CF9181200F099F9D8B200F096F91F
:1037700016E03549488900F097F9181200F08EF9E3
:10378000D8B200F08BF930490988491EC1F30F20E7
:1037900000F084F92C490978491EC8B200F07EF97E
:1037A0002949888900F080F9201200F077F9E0B209
:1037B00000F074F924494988491EC1F30F2000F034
:1037C0006DF921498978491EC8B200F067F939E0DE
:1037D0001D48808845F21051884220D11A494889F5
:1037E00000F062F9181200F059F917494989491C8B
:1037F00088B200F059F9D8B200F050F9124988891E
:1038000000F052F9201200F049F90F498989491C4A
:1038100088B200F049F9E0B200F040F912E00A483D
:103820008079012804D108480088401EC01A83B25C
:1038300005494889194600F047F903498889214616
:1038400000F042F910BD0000A00100202DE9F84F62
:1038500080460F4616461C46BB462046E31704EB3F
:103860005373DB1021464FEAE47C04EB5C7C4FEAA7
:10387000EC0CA4EBCC0CBCF1000F02D04FF0010C0F
:1038800001E04FF0000C6344224604EBD27C4FEA87
:103890006C0C03FB0CF3DBB20093A6F12000C6B264
:1038A000002568E00C2C07D106EB4600344901EBFB
:1038B000800010F8059025E0102C05D1314800EB70
:1038C000061010F805901DE0182C07D106EBC60075
:1038D0002D4901EB800010F8059013E0202C05D154
:1038E0002A4800EB861010F805900BE0302C07D129
:1038F00006EBC600264901EB001010F8059001E028
:10390000BDE8F88F4FF0000A2FE009F0800030B1D9
:103910002048028839464046FEF716FB07E00A9821
:1039200028B91D48028839464046FEF70DFB4FEA8C
:1039300049604FEA1069781C87B218484088B8423D
:1039400000DCDDE7A7EB0B00A0420AD15F4608F1DF
:1039500001001FFA80F811480088404500DCCFE7DD
:1039600006E00AF1010000F0FF0ABAF1080FCCDB13
:1039700000BF681CC5B20098854293DB00BFBFE75B
:10398000FAD300086ED800085EDE0008BAEB000823
:103990007A0301087C0000207E000020A0010020A6
:1039A0002DE9FF4F81B0074691461E460E9D4FF010
:1039B000000A002439E0301B401EC1B20A20FFF784
:1039C000D9FCB9FBF0F00A21B0FBF1F201FB1208BF
:1039D000BAF1000F16D1701EA04213DDB8F1000F2E
:1039E0000ED10020AB4605EBDB71491001FB0471E1
:1039F000009088B22B4620220299FFF727FF12E0A1
:103A00004FF0010A0020AB4605EBDB71491001FBCA
:103A10000471009088B208F13001CAB22B460299B5
:103A2000FFF714FF00BF601CC4B2B442C3DB05B093
:103A3000BDE8F08F2DE9F84704460D4690469946BB
:103A4000DDE9096704F0FF0A08EB04001FFA80F8BB
:103A500009EB05001FFA80F916E0444502DB5446E5
:103A6000A81985B24D4500DB14E0002000903A789B
:103A7000334629462046FFF7E9FE304606EBD07173
:103A800004EB61018CB27F1C38787E2802DC387828
:103A90002028E2DA00BFBDE8F8870000014908806D
:103AA000704700000008006C014908807047000062
:103AB000FE07006C02480089024908807047000038
:103AC000A0010020FE07006C024A1080921C1180A9
:103AD00070470000FE07006C2DE9F84F80460F4646
:103AE00016461C46BB462046E31704EB5373DB1017
:103AF00021464FEAE47C04EB5C7C4FEAEC0CA4EB3F
:103B0000CC0CBCF1000F02D04FF0010C01E04FF0E3
:103B1000000C6344224604EBD27C4FEA6C0C03FB9E
:103B20000CF3DBB20093A6F12000C6B2002567E0DB
:103B30000C2C07D106EB4600344901EB800010F84D
:103B4000059025E0102C05D1314800EB061010F847
:103B500005901DE0182C07D106EBC6002D4901EB9E
:103B6000800010F8059013E0202C05D12A4800EBC6
:103B7000861010F805900BE0302C07D106EBC6003C
:103B8000264901EB001010F8059001E0BDE8F88F20
:103B90004FF0000A2EE009F0800028B13946404677
:103BA0000B9AFEF7D1F907E00A9828B91C48028859
:103BB00039464046FEF7C8F94FEA49604FEA1069B6
:103BC000781C87B217484088B84200DCDEE7A7EBD4
:103BD0000B00A0420AD15F4608F101001FFA80F8ED
:103BE00010480088404500DCD0E706E00AF10100FB
:103BF00000F0FF0ABAF1080FCDDB00BF681CC5B2A8
:103C00000098854294DB00BFC0E70000FAD30008AB
:103C10006ED800085EDE0008BAEB00087A030108DF
:103C20007E000020A001002008B50121082001F03D
:103C3000FFFE0121802001F0FBFE0121042001F0A4
:103C4000F7FE4FF48170ADF8000010208DF80300EE
:103C500003208DF8020069461548FDF74DFC4FF42E
:103C600081711348FDF7D5FC2020ADF8000010202D
:103C70008DF8030003208DF8020069460D48FDF71A
:103C80003BFC20210B48FDF7C4FC8020ADF8000070
:103C900010208DF8030003208DF8020069460648C5
:103CA000FDF72AFC80210448FDF7B3FC08BD0000A5
:103CB00000080140000C0140001C014070B50021CB
:103CC00000230F22C47804B3154C246804F4E06484
:103CD000C4F5E064210AC1F10403CA40447804FA3F
:103CE00003F184781440214309010E4C0678A15554
:103CF000047804F01F050124AC4005786D11AD0077
:103D000005F1E025C5F8004109E0047804F01F053D
:103D10000124AC40044D0678761145F8264070BD6C
:103D20000CED00E000E400E080E100E00249014326
:103D3000024A1160704700000000FA050CED00E037
:103D4000014908627047000000000E422DE9F0436F
:103D50008BB0002501261822F84905A8FCF735FA92
:103D600034460621204601F0B7FD0621204608F022
:103D7000B1FC4FF6FF7001212022F1A3CDE9003202
:103D8000CDE90210F2490988A1F1C00808EBD87109
:103D9000C1F34F001346C022092104F007FF4FF67C
:103DA000FF7001212022EBA3CDE90032CDE9021002
:103DB0001346402240F2F721122004F0F7FE4FF69E
:103DC000FF7001212022E5A3CDE90032CDE90210E8
:103DD0001346402240F2F72140F2931004F0E6FE31
:103DE000002715E000210122202305A850F8270014
:103DF000CDE9013203910090322207FB02F000F17D
:103E00003B014FF4C0720A2004F0D0FE781CC7B208
:103E1000062FE7DBD3488088B0F5784F1ED006DC4C
:103E200098B11F2835D0B0F5FC6F3CD127E0A0F544
:103E30007F40E038D8B11F2835D1C30205224B217D
:103E40004FF4E17008F0CCFC2DE04FF478430522EC
:103E50007D214FF4E17008F0C3FC24E04FF4784377
:103E60000522AF214FF4E17008F0BAFC1BE04FF4DB
:103E700078430522E121480008F0B2FC13E04FF43A
:103E80007843052240F213114FF4E17008F0A8FCCA
:103E900009E04FF47843052240F245114FF4E170F8
:103EA00008F09EFC00BF00BF6FE23220FDF75EF914
:103EB00002F070FA042001F099FF0546002DF3D0BE
:103EC0002946A9A005F042FE012D71DB0E2D6FDC05
:103ED000062DFCDC2946A8A005F038FE601E0E2148
:103EE00090FBF1F201FB120000F0FF08404608F0E1
:103EF000AFFB601E0E2190FBF1F201FB120005A941
:103F000051F82080601E0E2190FBF1F201FB12009F
:103F1000322148433B301FFA80F900200121202242
:103F20001346CDE90082CDE902104FF4C072494634
:103F30000A2004F03BFE2C460621204608F0F4FA45
:103F4000601E0E2190FBF1F201FB120000F0FF0851
:103F5000404608F061FB83488088B0F5784F1ED05A
:103F600006DC98B11F2836D0B0F5FC6F3DD128E0B3
:103F7000A0F57F40E038E0B11F2836D1C30205220A
:103F80004B214FF4E17008F02BFC2EE04FF4784306
:103F900005227D214FF4E17008F022FC25E04FF46A
:103FA00078430522AF214FF4E17008F019FC1CE0C2
:103FB00023E14FF478430522E121480008F010FC8A
:103FC00013E04FF47843052240F213114FF4E170EF
:103FD00008F006FC09E04FF47843052240F2451151
:103FE0004FF4E17008F0FCFB00BF00BF0521204644
:103FF00008F070FB601E0E2190FBF1F201FB120035
:1040000005A951F82080601E0E2190FBF1F201FB02
:104010001200322148433B301FFA80F90020012171
:1040200020221346CDE90082CDE902104FF4C07280
:1040300049460A2004F0BAFDA64201D02646A4E172
:1040400048488088B0F5784F1FD006DCA0B11F2803
:1040500036D0B0F5FC6F3DD128E0A0F57F40E038C8
:10406000E0B11F2836D14FF6FF7305224B214FF4E4
:10407000E17008F0B5FB2DE04FF6FF7305227D21BE
:104080004FF4E17008F0ACFB24E04FF6FF7305221B
:10409000AF214FF4E17008F0A3FB1BE04FF6FF7374
:1040A0000522E121480008F09BFB13E04FF6FF7367
:1040B000052240F213114FF4E17008F091FB09E082
:1040C0004FF6FF73052240F245114FF4E17008F0FE
:1040D00087FB00BF00BF072E21D2DFE806F02004D7
:1040E000090D12171C004FF6FF701E49888016E05C
:1040F00000201C49888012E04FF4784019498880DC
:104100000DE04FF6E0701749888008E04FF4FC603E
:104110001449888003E01F201249888000BF00BF37
:1041200010488088B0F5784F41D029DC28B11F288D
:1041300058D0B0F5FC6F5FD14AE02FE0044601088B
:10414000B1B3BEB0D1D5C9ABC5E4D6C30000000041
:10415000A0010020B4F2BFAA00000000B7B5BBD890
:1041600000000000341900206374726C5F72656493
:10417000203D2025640A00007069636B25640A00F5
:10418000A0F57F40E038D8B11F2835D1C302052201
:104190004B214FF4E17008F023FB2DE04FF47843FE
:1041A00005227D214FF4E17008F01AFB24E04FF462
:1041B00078430522AF214FF4E17008F011FB1BE0BA
:1041C0004FF478430522E121480008F009FB13E091
:1041D0004FF47843052240F213114FF4E17008F0D8
:1041E000FFFA09E04FF47843052240F245114FF4FD
:1041F000E17008F0F5FA00BFC7E0162D7DD1264624
:1042000066488088B0F5784F1FD006DCA0B11F2823
:1042100036D0B0F5FC6F3DD128E0A0F57F40E03806
:10422000E0B11F2836D14FF6FF7305224B214FF422
:10423000E17008F0D5FA2DE04FF6FF7305227D21DD
:104240004FF4E17008F0CCFA24E04FF6FF7305223A
:10425000AF214FF4E17008F0C3FA1BE04FF6FF7393
:104260000522E121480008F0BBFA13E04FF6FF7386
:10427000052240F213114FF4E17008F0B1FA09E0A1
:104280004FF6FF73052240F245114FF4E17008F03C
:10429000A7FA00BF00BF072E21D2DFE806F02004F6
:1042A000090D12171C004FF6FF703C49888016E07C
:1042B00000203A49888012E04FF4784037498880DE
:1042C0000DE04FF6E0703549888008E04FF4FC605F
:1042D0003249888003E01F203049888000BF00BF3A
:1042E0002E488088B0F5784F1FD007DCA0B11F287A
:1042F00036D0B0F5FC6F3DD128E040E0A0F57F401E
:10430000E038D8B11F2835D1C30205224B214FF424
:10431000E17008F065FA2DE04FF4784305227D2125
:104320004FF4E17008F05CFA24E04FF47843052282
:10433000AF214FF4E17008F053FA1BE04FF47843DB
:104340000522E121480008F04BFA13E04FF47843CE
:10435000052240F213114FF4E17008F041FA09E030
:104360004FF47843052240F245114FF4E17008F014
:1043700037FA00BF00BF0AA005F0E8FB05E0152DE5
:1043800003D10AA005F0E2FB00E08EE500BF0AA021
:1043900005F0DCFB0BB0BDE8F08300003419002011
:1043A00043544F525F4F4B0A0000000043544F529A
:1043B0005F5245540A000000C5E4D6C3BDE7C3E61A
:1043C000CDCBB3F60A0000002DE9F0438BB00025F9
:1043D00001261822F84905A8FBF7F7FE3446062106
:1043E000204601F079FA0621204608F073F94FF6CD
:1043F000FF7001212022F1A3CDE90032CDE90210A6
:10440000F2490988A1F1C00808EBD871C1F34F0047
:104410001346C022092104F0C9FB4FF6FF700121A9
:104420002022EBA3CDE90032CDE902101346402251
:1044300040F2F721122004F0B9FB4FF6FF70012182
:104440002022E5A3CDE90032CDE902101346402237
:1044500040F2F72140F2931004F0A8FB002715E08A
:1044600000210122202305A850F82700CDE90132C0
:1044700003910090322207FB02F000F13B014FF460
:10448000C0720A2004F092FB781CC7B2062FE7DB4B
:10449000D3484088B0F5784F1ED006DC98B11F286D
:1044A00035D0B0F5FC6F3CD127E0A0F57F40E03877
:1044B000D8B11F2835D1C30205224B214FF4E1703A
:1044C00008F08EF92DE04FF4784305227D214FF45A
:1044D000E17008F085F924E04FF478430522AF211C
:1044E0004FF4E17008F07CF91BE04FF478430522AB
:1044F000E121480008F074F913E04FF478430522F5
:1045000040F213114FF4E17008F06AF909E04FF43A
:104510007843052240F245114FF4E17008F060F94C
:1045200000BF00BF6FE23220FCF720FE01F032FF37
:10453000042001F05BFC0546002DF3D02946A9A01C
:1045400005F004FB012D71DB0E2D6FDC062DFCDC6C
:104550002946A8A005F0FAFA601E0E2190FBF1F2A0
:1045600001FB120000F0FF08404608F071F8601EE1
:104570000E2190FBF1F201FB120005A951F82080F9
:10458000601E0E2190FBF1F201FB12003221484324
:104590003B301FFA80F90020012120221346CDE98B
:1045A0000082CDE902104FF4C07249460A2004F09F
:1045B000FDFA2C460621204607F0B6FF601E0E21AC
:1045C00090FBF1F201FB120000F0FF08404608F0FA
:1045D00023F883484088B0F5784F1ED006DC98B1A8
:1045E0001F2836D0B0F5FC6F3DD128E0A0F57F4004
:1045F000E038E0B11F2836D1C30205224B214FF429
:10460000E17008F0EDF82EE04FF4784305227D21AB
:104610004FF4E17008F0E4F825E04FF47843052208
:10462000AF214FF4E17008F0DBF81CE023E14FF418
:1046300078430522E121480008F0D2F813E04FF456
:104640007843052240F213114FF4E17008F0C8F8E6
:1046500009E04FF47843052240F245114FF4E17030
:1046600008F0BEF800BF00BF0621204608F032F86F
:10467000601E0E2190FBF1F201FB120005A951F81A
:104680002080601E0E2190FBF1F201FB120032210E
:1046900048433B301FFA80F90020012120221346B5
:1046A000CDE90082CDE902104FF4C07249460A20DC
:1046B00004F07CFAA64201D02646A4E1484840888E
:1046C000B0F5784F1FD006DCA0B11F2836D0B0F56A
:1046D000FC6F3DD128E0A0F57F40E038E0B11F2815
:1046E00036D14FF6FF7305224B214FF4E17008F0ED
:1046F00077F82DE04FF6FF7305227D214FF4E1702E
:1047000008F06EF824E04FF6FF730522AF214FF456
:10471000E17008F065F81BE04FF6FF730522E12118
:10472000480008F05DF813E04FF6FF73052240F2F1
:1047300013114FF4E17008F053F809E04FF6FF73DE
:10474000052240F245114FF4E17008F049F800BF2E
:1047500000BF072E21D2DFE806F02004090D121752
:104760001C004FF6FF701E49488016E000201C49CF
:10477000488012E04FF47840194948800DE04FF628
:10478000E0701749488008E04FF4FC601449488005
:1047900003E01F201249488000BF00BF1048408836
:1047A000B0F5784F41D029DC28B11F2858D0B0F59A
:1047B000FC6F5FD14AE02FE0EC450108D7D6CCE58D
:1047C000D1D5C9ABC5E4D6C300000000A0010020CC
:1047D000B4F2BFAA00000000B7B5BBD800000000CB
:1047E000341900206374726C5F726564203D20256B
:1047F000640A00007069636B25640A00A0F57F40BD
:10480000E038D8B11F2835D1C30205224B214FF41F
:10481000E17007F0E5FF2DE04FF4784305227D219C
:104820004FF4E17007F0DCFF24E04FF478430522F9
:10483000AF214FF4E17007F0D3FF1BE04FF4784352
:104840000522E121480007F0CBFF13E04FF4784345
:10485000052240F213114FF4E17007F0C1FF09E0A7
:104860004FF47843052240F245114FF4E17007F010
:10487000B7FF00BFC7E0162D7DD1264666484088A9
:10488000B0F5784F1FD006DCA0B11F2836D0B0F5A8
:10489000FC6F3DD128E0A0F57F40E038E0B11F2853
:1048A00036D14FF6FF7305224B214FF4E17007F02C
:1048B00097FF2DE04FF6FF7305227D214FF4E17045
:1048C00007F08EFF24E04FF6FF730522AF214FF46F
:1048D000E17007F085FF1BE04FF6FF730522E12131
:1048E000480007F07DFF13E04FF6FF73052240F20A
:1048F00013114FF4E17007F073FF09E04FF6FF73F7
:10490000052240F245114FF4E17007F069FF00BF46
:1049100000BF072E21D2DFE806F02004090D121790
:104920001C004FF6FF703C49488016E000203A49D1
:10493000488012E04FF47840374948800DE04FF648
:10494000E0703549488008E04FF4FC603249488007
:1049500003E01F203049488000BF00BF2E48408838
:10496000B0F5784F1FD007DCA0B11F2836D0B0F5C6
:10497000FC6F3DD128E040E0A0F57F40E038D8B1A1
:104980001F2835D1C30205224B214FF4E17007F0F7
:1049900027FF2DE04FF4784305227D214FF4E1708D
:1049A00007F01EFF24E04FF478430522AF214FF4B7
:1049B000E17007F015FF1BE04FF478430522E12179
:1049C000480007F00DFF13E04FF47843052240F252
:1049D00013114FF4E17007F003FF09E04FF478433F
:1049E000052240F245114FF4E17007F0F9FE00BFD7
:1049F00000BF0AA005F0AAF805E0152D03D10AA012
:104A000005F0A4F800E08EE500BF0AA005F09EF8CE
:104A10000BB0BDE8F08300003419002043544F521E
:104A20005F4F4B0A0000000043544F525F52455401
:104A30000A000000C5E4D6C3BDE7C3E6CDCBB3F69C
:104A40000A0000002DE9F04389B000250126142258
:104A5000F74904A8FBF7B9FB34460521204600F0CE
:104A60003BFF0521204607F035FE4FF6FF70012180
:104A70002022F0A3CDE90032CDE90210F0490988E7
:104A8000A1F1800808EBD871C1F34F0013468022D2
:104A9000092104F08BF84FF6FF7001212022E9A3D1
:104AA000CDE90032CDE902101346402240F2F72151
:104AB000122004F07BF84FF6FF7001212022E3A3BF
:104AC000CDE90032CDE902101346402240F2F72131
:104AD00040F2931004F06AF8002715E0002101224B
:104AE000202304A850F82700CDE90132039100905B
:104AF000322207FB02F000F13B014FF4C0720A20A2
:104B000004F054F8781CC7B2052FE7DBD1480078D1
:104B100018281CD004DC0C2807D0102832D10DE056
:104B200020281DD030282DD122E04FF478430522D3
:104B30004B214FF4E17007F053FE23E04FF478432C
:104B400005227D214FF4E17007F04AFE1AE04FF490
:104B500078430522AF214FF4E17007F041FE11E0E8
:104B60004FF478430522E121480007F039FE09E0BF
:104B70004FF47843052240F213114FF4E17007F02F
:104B80002FFE00BF00BF17E23220FCF7EFFA01F062
:104B900001FC042001F02AF90546002DF3D0294636
:104BA000ADA004F0D3FF012D76DB0E2D74DC052DB6
:104BB000FCDC2946ACA004F0C9FF601E0E2190FB6E
:104BC000F1F201FB120000F0FF08404607F040FD43
:104BD000601E0E2190FBF1F201FB120004A951F8B6
:104BE0002080601E0E2190FBF1F201FB12003221A9
:104BF00048433B301FFA80F9002001212022134650
:104C0000CDE90082CDE902104FF4C07249460A2076
:104C100003F0CCFF2C460521204607F085FC601EE2
:104C20000E2190FBF1F201FB120000F0FF0840465C
:104C300007F0F2FC8748007818281CD004DC0C2808
:104C400007D0102833D10DE020281DD030282ED1D8
:104C500023E04FF4784305224B214FF4E17007F035
:104C6000BFFD24E04FF4784305227D214FF4E1702D
:104C700007F0B6FD1BE04FF478430522AF214FF457
:104C8000E17007F0ADFD12E04FF478430522E12119
:104C9000480007F0A5FD0AE0EAE04FF4784305225A
:104CA00040F213114FF4E17007F09AFD00BF00BF0E
:104CB0000521204607F00EFD601E0E2190FBF1F24B
:104CC00001FB120004A951F82080601E0E2190FB08
:104CD000F1F201FB1200322148433B301FFA80F908
:104CE0000020012120221346CDE90082CDE90210E7
:104CF0004FF4C07249460A2003F058FFA64201D083
:104D0000264659E15348007818281CD004DC0C28AA
:104D100007D0102832D10DE020281DD030282DD109
:104D200022E04FF6FF7305224B214FF4E17007F0AC
:104D300057FD23E04FF6FF7305227D214FF4E1700C
:104D400007F04EFD1AE04FF6FF730522AF214FF436
:104D5000E17007F045FD11E04FF6FF730522E121F8
:104D6000480007F03DFD09E04FF6FF73052240F2D1
:104D700013114FF4E17007F033FD00BF00BF062EA2
:104D800018D2DFE806F01703070B0F130C20314988
:104D900008700FE010202F4908700BE018202D49F3
:104DA000087007E020202B49087003E030202949D3
:104DB000087000BF00BF2748007818281CD004DC0A
:104DC0000C2807D0102832D10DE020281DD0302823
:104DD0002DD122E04FF4784305224B214FF4E170AE
:104DE00007F0FEFC23E04FF4784305227D214FF4C9
:104DF000E17007F0F5FC1AE04FF478430522AF218B
:104E00004FF4E17007F0ECFC11E04FF47843052219
:104E1000E121480007F0E4FC09E04FF47843052263
:104E200040F213114FF4E17007F0DAFC00BFC3E069
:104E3000D8450108D7D6CCE5C5E4D6C300000000AC
:104E4000A0010020B4F2BFAA00000000B7B5BBD893
:104E500000000000341900206374726C5F72656496
:104E6000203D2025640A00007069636B25640A00F8
:104E7000162D71D126465448007818281CD004DC21
:104E80000C2807D0102832D10DE020281DD0302862
:104E90002DD122E04FF6FF7305224B214FF4E17034
:104EA00007F09EFC23E04FF6FF7305227D214FF4AF
:104EB000E17007F095FC1AE04FF6FF730522AF2171
:104EC0004FF4E17007F08CFC11E04FF6FF73052200
:104ED000E121480007F084FC09E04FF6FF7305224A
:104EE00040F213114FF4E17007F07AFC00BF00BFED
:104EF000062E18D2DFE806F01703070B0F130C205D
:104F0000314908700FE010202F4908700BE018207D
:104F10002D49087007E020202B49087003E030205D
:104F20002949087000BF00BF2748007818281DD005
:104F300004DC0C2807D0102833D10EE020281ED026
:104F400030282ED123E04FF4784305224B214FF433
:104F5000E17007F045FC24E028E04FF47843052297
:104F60007D214FF4E17007F03BFC1AE04FF47843E9
:104F70000522AF214FF4E17007F032FC11E04FF44D
:104F800078430522E121480007F02AFC09E04FF4AC
:104F90007843052240F213114FF4E17007F020FC32
:104FA00000BF00BF09A004F0D1FD05E0152D03D11D
:104FB00009A004F0CBFD00E0E6E500BF09A004F085
:104FC000C5FD09B0BDE8F0833419002043544F52A9
:104FD0005F4F4B0A0000000043544F525F5245544C
:104FE0000A000000C5E4D6C3BDE7C3E6CDCBB3F6E7
:104FF0000A0000002DE9F04389B000240127EC4BA2
:10500000D3E90020D3E9021306AD0BC505923E4655
:105010000421304600F060FC0421304607F05AFBC2
:105020004FF6FF7001212022E2A3CDE90032CDE945
:105030000210E4490988A1F1E00808EBD871C1F336
:105040004F001346E022092103F0B0FD4FF6FF7038
:1050500001212022DCA3CDE90032CDE90210134664
:10506000402240F2F721122003F0A0FD4FF6FF701E
:1050700001212022D6A3CDE90032CDE9021013464A
:10508000402240F2F72140F2931003F08FFD0025FB
:1050900015E000210122202305A850F82500CDE9C4
:1050A000013203910090322205FB02F000F13B0136
:1050B0004FF4C0720A2003F079FD681CC5B2042DBC
:1050C000E7DB6DE13220FCF751F801F063F90420D1
:1050D00000F08CFE0446002CF3D02146BEA004F064
:1050E00035FD012C77DB0E2C75DC042CFCDC214615
:1050F000BDA004F02BFD701E0E2190FBF1F201FB10
:10510000120000F0FF08404607F0A2FA701E0E21C0
:1051100090FBF1F201FB120005A951F82080701EEE
:105120000E2190FBF1F201FB1200322148433B308B
:105130001FFA80F90020012120221346CDE90082C8
:10514000CDE902104FF4C07249460A2003F02EFD4B
:1051500026460421304607F0E7F9701E0E2190FB29
:10516000F1F201FB120000F0FF08404607F054FA8C
:105170000421304607F0AEFA701E0E2190FBF1F2CA
:1051800001FB120005A951F82080701E0E2190FB32
:10519000F1F201FB1200322148433B301FFA80F943
:1051A0000020012120221346CDE90082CDE9021022
:1051B0004FF4C07249460A2003F0F8FCB74201D010
:1051C0003746EDE0012F07D0022F08D0032F09D07A
:1051D000042F0DD109E066E0FFF734FC08E0FFF78B
:1051E000F3F805E0FEF7B2FD02E001F013FB00BFAB
:1051F00000BF0421304600F06FFB0421304607F069
:1052000069FA4FF6FF70012120226AA3CDE900322E
:10521000CDE902106B490988A1F1E00808EBD871CB
:10522000C1F34F001346E022092103F0BFFC4FF603
:10523000FF700121202264A3CDE90032CDE90210E4
:105240001346402240F2F721122003F0AFFC4FF644
:10525000FF70012120225EA3CDE90032CDE90210CA
:105260001346402240F2F72140F2931003F09EFCD7
:10527000002515E000210122202305A850F8250073
:10528000CDE9013203910090322205FB02F000F1DA
:105290003B014FF4C0720A2003F088FC681CC5B2C1
:1052A000042D7DDAE6E7162C74D13746012F06D09F
:1052B000022F07D0032F08D0042F0CD108E0FFF7EE
:1052C000C1FB08E0FFF780F805E0FEF73FFD02E0D4
:1052D00001F0A0FA00BF00BF0421304600F0FCFA44
:1052E0000421304607F0F6F94FF6FF700121202225
:1052F00030A3CDE90032CDE9021032490988A1F18D
:10530000E00808EBD871C1F34F001346E0220921F1
:1053100003F04CFC4FF6FF70012120222AA3CDE9B7
:105320000032CDE902101346402240F2F72112204C
:1053300003F03CFC4FF6FF700121202224A3CDE9AD
:105340000032CDE902101346402240F2F72140F22C
:10535000931003F02BFC002515E0002101222023EF
:1053600005A850F82500CDE90132039100903222C2
:1053700005FB02F000F13B014FF4C0720A2003F07C
:1053800015FC681CC5B2042DE7DB19A004F0DEFB98
:1053900006E0FFE7152C03D118A004F0D7FB00E0CE
:1053A00090E600BF18A004F0D1FB09B0BDE8F0837F
:1053B000C84501083C3CD4C4B6C1C6F7C5E4D6C351
:1053C0003E3E0000A0010020B4F2BFAA0000000091
:1053D000B7B5BBD8000000006374726C5F7265647F
:1053E000203D2025640A00007069636B25640A0073
:1053F00043544F525F4F4B0A0000000043544F523A
:105400005F5245540A000000C5E4D6C3BDE7C3E6B9
:10541000CDCBB3F60A0000002DE9F04F8FB08246E5
:1054200000264FF0010B0124002740200E9007F0CA
:105430007BFA0D905146F34806F07CF88146B9F1AD
:10544000000F08D04A465146EFA004F07FFB002031
:105450000FB0BDE8F08F5146F3A004F077FB18E0E1
:1054600007A9E84806F081F98146B9F1000F05D097
:105470004A465146F3A004F069FB0BE09DF8250075
:1054800028B93A465146F7A004F060FB02E0781CC8
:1054900087B2E5E700BFDB4805F0F3FDB80107F090
:1054A00043FA8046B9014046FAF7A8FE5146D5486E
:1054B00006F040F88146B9F1000F09D04A4651463E
:1054C000D1A004F043FB0D9806F0C8FD0020BFE713
:1054D000002528E007A9CB4806F047F98146B9F135
:1054E000000F05D04A465146D6A004F02FFB1CE021
:1054F0009DF8250028B93A465146DAA004F026FB6B
:1055000013E00D98FAF791FE28B108EB85100D997C
:10551000FAF7A0FE05E008EB85100DF12501FAF77A
:1055200099FE681C85B2BD42D4DB00BFB54805F0CA
:10553000A8FD0D9806F092FDF9B2204600F0CCF9D6
:10554000F9B2204607F0C6F84FF6FF70012120227D
:10555000CEA3CDE90032CDE90210D0490988E03967
:10556000059101EBD171C1F34F001346E0220921EF
:1055700003F01CFB4FF6FF7001212022C8A3CDE9E8
:105580000032CDE902101346402240F2F7211220EA
:1055900003F00CFB4FF6FF7001212022C2A3CDE9DE
:1055A0000032CDE902101346402240F2F72140F2CA
:1055B000931003F0FBFA00252DE0002101222023A7
:1055C00008EB8510CDE9013203910090322205FBF2
:1055D00002F03B3081B24FF4C0720A2003F0E6FAC9
:1055E00008EB8510FAF721FE182812D300200121BC
:1055F0002022AFA3CDE90032CDE90210322205FB13
:1056000002F03B3081B2202330224FF4D07003F0FF
:10561000CDFA681C85B2BD42CFDB4FF47A70FBF740
:10562000A5FDD4E03220FBF7A1FD00F0B3FE012080
:1056300000F0DCFB0646002EF3D0012E7EDB0E2EA2
:105640007CDCBE42FCDC31469AA004F07FFA601E8E
:105650000E2190FBF1F201FB1200C0B2059006F0A2
:10566000F7FF601E0E2190FBF1F201FB120008EB28
:1056700080100590601E90FBF1F201FB12003221B8
:1056800048433B3080B2002101222023049005983A
:10569000CDE90132039100904FF4C0720A200499C1
:1056A00003F084FA601E0E2190FBF1F201FB120060
:1056B00008EB80100590FAF7B8FD182819D3601E82
:1056C0000E2190FBF1F201FB1200322148433B30E6
:1056D00080B2059000200121202275A3CDE900327F
:1056E000CDE90210134630224FF4D070059903F033
:1056F0005DFA3446F9B2204606F016FF601E0E2110
:1057000090FBF1F201FB1200C0B2059006F084FF9D
:10571000F9B2204606F0DEFF601E0E2190FBF1F28A
:1057200001FB120008EB80100590601E90FBF1F267
:1057300001FB1200322148433B3000E03BE080B2E5
:1057400000210122202304900598CDE90132039124
:1057500000904FF4C0720A20049903F027FA601EEB
:105760000E2190FBF1F201FB120008EB8010059076
:10577000FAF75BFD182819D3601E0E2190FBF1F299
:1057800001FB1200322148433B3080B205900020DB
:105790000121202246A3CDE90032CDE902101346B3
:1057A00030224FF4D070059903F000FAA34501D0E0
:1057B000A3460CE00CE0162E04D140A004F0C6F97C
:1057C000A34605E0182E02D13FA004F0BFF929E757
:1057D00000BF802007F0A8F8069080210698FAF70D
:1057E0000DFD52463BA1069804F0C0F9ABF1010053
:1057F00008EB80110698FAF70CFD404606F02EFCE7
:10580000069825E610190020C4BFC2BC2573B4F267
:10581000BFAACAA7B0DCA3A1A3A1A3A109B4EDCEDE
:10582000F3C2EB25640A0000B3C9B9A6B4F2BFAA5B
:10583000D0A1CBB5B4E6B7C5C4BFC2BCA3BA25736B
:105840000A000000C4BFC2BC2573D0C5CFA2B6C138
:10585000C8A1CAA7B0DC21212109B4EDCEF3C2EB67
:1058600025640A00C4BFC2BC2573CEC4BCFEB8F612
:10587000CAFDB6C1C8A1CDEAB1CF0966696C65633E
:105880006F756E74203D2025640A00003C3CD0A159
:10589000CBB5D4C4B6C1C6F73E3E0000A00100207F
:1058A000B4F2BFAA00000000CFC2D2B300000000D3
:1058B0002E2E2E007069636B25640A0043544F52EC
:1058C0005F4F4B0A0000000043544F525F4E455853
:1058D000540A000025732F0070B504460D464FF69C
:1058E000FF70FCF793F906F0D5FD06F002FE29469D
:1058F000204606F019FE601E0E2190FBF1F201FB1E
:105900001200C6B2304606F087FE70BD2DE9F04F9A
:1059100006461746DDE9095432468C464FF000082A
:10592000A9464BE0B8F1000F2FD195F800A0BAF1CD
:10593000800F02DD4FF0010840E004EBD47B02EB66
:10594000070EAEEB6B0BB34504DA01EB040A1FFA4A
:105950008AF116460CEB030AAAEB040A8A4500DA20
:1059600031E095F800A0BAF10D0F05D101EB040A62
:105970001FFA8AF116466D1C6D1CA24604EBDA7BF9
:1059800006EB6B0B1FFA8BF618E04FF0000802EBEA
:10599000070AAAEB040AB24504DA01EB040A1FFA6B
:1059A0008AF116460CEB030AAAEB040A8A4500DAD0
:1059B00009E0AD1C06EB040A1FFA8AF695F800A070
:1059C000BAF1000FAED100BFA5EB0900BDE8F08F22
:1059D00029B1064A52690243044B5A6104E0034A62
:1059E00052698243014B5A61704700000010024027
:1059F00029B1064AD2690243044BDA6104E0034A42
:105A0000D2698243014BDA61704700000010024006
:105A100029B1064A12690243044B1A6104E0034AA1
:105A200012698243014B1A61704700000010024066
:105A300029B1064A92690243044B9A6104E0034A81
:105A400092698243014B9A61704700000010024046
:105A500029B1064AD2680243044BDA6004E0034AE3
:105A6000D2688243014BDA607047000000100240A8
:105A700001490860704700004004424230B50021EF
:105A80000022002400232D4D6D6805F00C0121B18A
:105A9000042905D0082923D105E0294D056022E01D
:105AA000274D05601FE0254D6D6805F47012234DEC
:105AB0006D6805F48034022505EB92421CB9214D36
:105AC000554305600BE01D4D6D6805F400351DB1B3
:105AD0001C4D5543056002E0194D5543056002E039
